:09000000020BD9007F02DFFE2291
:0F000B00020864D2B4D2B6A2B4E433FFC2B62264
:10001B00020B420203DFE86480F8E933E833601136
:10002B000460F0ED33EC337009E8FCE9FDEAFEEB1C
:10003B00FF220460DED3EB9FEA9EE99DE8C2E78CCA
:10004B00F0C2F795F0400CE8CCF8E9CDF9EACEFA1E
:10005B00EBCFFB1203AA85D0F05804700320D5B365
:10006B00E80470075002B2D50203E992D5EC0460A4
:10007B00F7E4CCC0E0C398F8603B94186008400DDF
:10008B00D0E0FB0203C1E4FBFAC9FC8028E830E4B2
:10009B0006E4C9FBE4CAFCE830E305E4C9CACBFCBF
:1000AB00E854076010F8C3E913F9EA13FAEB13FBF2
:1000BB00EC13FCD8F130F52FC3E49CFCEF9BFFEE67
:1000CB009AFEED99FDD0E0FBEF4E4D4C701222DB0A
:1000DB00030203E6EC2CFCEF33FFEE33FEED33FDB6
:1000EB00ED30E7EB0203C1EF2BFFEE3AFEED39FDEE
:1000FB00D0E0FB50130BBB00030203E9ED13FDEE45
:10010B0013FEEF13FFEC13FC0203C1EC4D6011E87F
:10011B00497017ED33EC3304600DE4FCFFFEFD2258
:10012B00E933E8330470F80203DF1203AA580460C2
:10013B0009E4CC248150062850090203E928400326
:10014B000203E6C0E0EB4A7044B98006D0E0FB0244
:10015B0003D5EF4E701CBD8008EBFFEAFEE9FD8076
:10016B00EBE98DF0A4FEE5F00201FFE9CDF9EAFE23
:10017B00EBFFEF89F0A4FCE5F0CE89F0A42EFFE4B1
:10018B0035F0CD89F0A42DFEE435F08067EF4E708D
:10019B0005BD80D780C3EF8BF0A4ACF0EE8BF0A441
:1001AB002CFCE435F0F8EF8AF0A42CE5F038FCE4F5
:1001BB0033CB8DF0A42CFCE5F03BF8EE8AF0A42CAD
:1001CB00FCE5F038F8E433CF89F0A42CFCE5F038EB
:1001DB00CF3400CE89F0A42FFFE5F03EFEE433C907
:1001EB008DF0A42EFEE5F039CD8AF0A42FFFE5F0BB
:1001FB003EFEE43DFD33D0E0FB50070BBB000F028E
:10020B0003E9EC2CFCEF33FFEE33FEED33FD020381
:10021B00C10203E9EC5D046005E8590470030203B5
:10022B00DF1203AA580460F6EC4860F2EC7004FD90
:10023B00FEFF22C860DB2481C85009C398600250BE
:10024B00060203E69850CAF582E9294B4A7005ABC2
:10025B00820203D575F0007C1A7880C3EF9BEE9A6F
:10026B00ED99400DC3EF9BFFEE9AFEED99FDE84231
:10027B00F0DC23ACF0D0E0FFD0E0FED0E0FDAB82B1
:10028B0020E7101BEB60BAEC2CFCEF33FFEE33FED8
:10029B00ED33FD0203C1E803F830E705C0F075F05C
:1002AB0000EF2FFFEE33FEED33FD40B830E7C28099
:1002BB00AA74F8CC6480CCC86480C8F58204604F03
:1002CB00C3EB9FF5F0EA9E42F0E99D42F0E89C45B6
:1002DB00F0603C501DE5825FFFE582D313CB5BCB17
:1002EB00F42B5582FB50280ABA002409B9002008C8
:1002FB00801DE5825BFBE582D313CF5FCFF4C31385
:10030B002F5582FF50090EBE00050DBD00010CC319
:10031B00EB9FF5F0EA9E42F0E99D42F0E89C45F038
:10032B006007CC4820E701B3EC2275F020800E75F6
:10033B00F010800575F0087D007E007F003392D5AC
:10034B0030D503120406EC334010EF33FFEE33FECF
:10035B00ED33FDEC33FCD5F0ED22E5F0247EA2D598
:10036B0013CC92E7CDCEFF22EDD2E7CD33EC339217
:10037B00D524814006E4FFFEFDFC22FCE4CFCECD6C
:10038B00CC24E0501174FF80EDC3CC13CCCD13CD36
:10039B00CE13CECF13CF0470F030D5DE020406E9B6
:1003AB00D2E7C933E833F892D5EDD2E7CD33EC334E
:1003BB00FC5002B2D522EC30E7100FBF000C0EBE82
:1003CB0000080DBD00040BEB6014A2D5EB13FCED84
:1003DB0092E7FD2274FFFCFDFEFF22E480F8A2D51C
:1003EB0074FF13FC7D80E480EFEF8DF0A4A8F0CFB9
:1003FB008CF0A428CE8DF0A42EFE22C3E49FFFE444
:10040B009EFEE49DFDE49CFC227853E6D3940140D0
:10041B00030204AA782EE6FE08E6FF7C007D0A1292
:10042B0003F47830E6FC08E62FFDEE3CFCE4120307
:10043B003A8F288E278D268C25AB28AA27A926A88C
:10044B00257F007E247DF47C4612021F8F288E2789
:10045B008D268C25120373AD07AC06E412033AA864
:10046B0004A905AA06AB07AF28AE27AD26AC25120B
:10047B000021E4FBFAF9783F1202BCAF28AE27AD9E
:10048B0026AC256002500E120373EF2401F50BE42A
:10049B003EF50A80071203738E0A8F0B02056078F4
:1004AB0040E6FE08E6FF7C007D641203F4AA06AB6F
:1004BB0007783EE6FE08E6FF7C037DE81203F4EFC7
:1004CB002BFBEE3AFA7842E6FE08E6FF7C007D0A4B
:1004DB001203F4EF2BFFEE3AFEEF784526FDEE18F4
:1004EB0036FCE412033A8F288E278D268C25AB28F9
:1004FB00AA27A926A8257F007E247D747C49120299
:10050B001F8F288E278D268C25120373AD07AC0603
:10051B00E412033AA804A905AA06AB07AF28AE2735
:10052B00AD26AC25120021E4FBFAF9783F1202BC90
:10053B00AF28AE27AD26AC256002500E120373EF29
:10054B002401F50BE43EF50A80071203738E0A8F24
:10055B000B120933227836E6FE08E6FF7C007D0A93
:10056B001203F47838E6FC08E62FFDEE3CFCE412AF
:10057B00033AE4FBFA7920784112021F8F2C8E2B61
:10058B008D2A8C29E4FFFE7D7F7C43AB2CAA2BA903
:10059B002AA829120116E4FBFA79A0784012021F4F
:1005AB008F2C8E2B8D2A8C29120373AD07AC06E48E
:1005BB0012033AA804A905AA06AB07AF2CAE2BADC4
:1005CB002AAC29120021E4FBFAF9783F1202BCAFE6
:1005DB002CAE2BAD2AAC296002500E120373EF2404
:1005EB0001F523E43EF52280071203738E228F233D
:1005FB00AF2CAE2BAD2AAC29E4FBFA7980784112F3
:10060B00021F8F2C8E2B8D2A8C29120373AD07ACF6
:10061B0006E412033AA804A905AA06AB07AF2CAE51
:10062B002BAD2AAC29120021E4FBFAF9783F120218
:10063B00BCAF2CAE2BAD2AAC296002500912037350
:10064B00EF04F51980051203738F19C3E4950BF5AD
:10065B000BE4950AF50AF58C850B8A7518011210B7
:10066B00F67F90120F7F12000E7F40120F7F120049
:10067B000ED28C227B1075A0FFC2A020A40B1210EF
:10068B001830A4FD121018E4FB20A50B1210183023
:10069B00A5FD1210187B0120A60B12101830A6FD19
:1006AB001210187B0220A70B12101830A7FD121086
:1006BB00187B0375A0FFC2A120A40B12101830A445
:1006CB00FD1210187B0420A50B12101830A5FD127B
:1006DB0010187B0520A60B12101830A6FD1210184F
:1006EB007B0620A70B12101830A7FD1210187B07E2
:1006FB0075A0FFC2A220A40B12101830A4FD12107B
:10070B00187B0A20A50B12101830A5FD1210187BB0
:10071B000820A60B12101830A6FD1210187B09200A
:10072B00A70B12101830A7FD1210187B0B75A0FF2A
:10073B00C2A320A40B12101830A4FD1210187B0CAE
:10074B0020A50B12101830A5FD1210187B0D20A63A
:10075B000B12101830A6FD1210187B0E20A70B12CF
:10076B00101830A7FD1210187B0FAF0322E4FF788F
:10077B0053E6D39401505E782EE6FC08E6FDC3ECFD
:10078B009400400BED9405EC940050030F8013ED97
:10079B0064054C700B7831E6184670047F018002BB
:1007AB00E4FF7836E6FC08E6FDC39401EC940040C8
:1007BB000DED9405EC940050057E01020860ED648C
:1007CB00054C700C7839E6184670057E01020860FE
:1007DB00E4FE020860783EE6FC08E6FDC39401ECFB
:1007EB00940050047F01803FED64014C70197841F7
:1007FB00E6184670127843E61846700B7845E618F3
:10080B004670047F018020783FE6184670177841C8
:10081B00E618467010C37843E6940218E69400502D
:10082B0004E4FF8002E4FF7846E6FC08E6FDC3948F
:10083B0002EC9400400CED9408EC940050047E0103
:10084B008013ED64084C700B7849E6184670047EF3
:10085B00018002E4FEEF5EFF22C0E0C0F0C083C067
:10086B0082C0D075D000C000C001C002C003C0045C
:10087B00C005C006C007C2AF7853E6C3940240243C
:10088B00E5187F0070027F018F18E518600BE50CEF
:10089B00F58C850D8AD2968072E51AF58C851B8AAC
:1008AB00C2968067E50AF58C850B8AE5186028E50A
:1008BB0019251DF51DE4351CF51CC3E51D9523E518
:1008CB001C9522403C85221C85231DE5187F00705A
:1008DB00027F018F18802AC3E51D9519F51DE51CB4
:1008EB009400F51CD3E51D9400E51C6480948050A6
:1008FB0010751C00751D00E5187F0070027F018FBD
:10090B0018AF1D120F7F7F011210E3D2AFD007D0AB
:10091B0006D005D004D003D002D001D000D0D0D067
:10092B0082D083D0F0D0E0327846E6FE08E6FF7C3A
:10093B00007D0A1203F47848E6FC08E62FFDEE3C36
:10094B00FCE412033AE4FBFA79C8784212021F8FD7
:10095B002C8E2B8D2A8C29AC0AAD0BE412033AABEF
:10096B002CAA2BA92AA8291201168F2C8E2B8D2A83
:10097B008C29120373AD07AC06E412033AA804A941
:10098B0005AA06AB07AF2CAE2BAD2AAC2912002162
:10099B00E4FBFAF9783F1202BCAF2CAE2BAD2AACBC
:1009AB00296002500E120373EF2401F50DE43EF59E
:1009BB000C80071203738E0C8F0DC3E50B950DF591
:1009CB001BE50A950CF51AC3743C950DF50DE495D2
:1009DB000CF50CC3743C951BF51BE4951AF51AE545
:1009EB000CF58C850D8A751801D28C2212067F8F1F
:1009FB0024E524B40C0B1210FFC28C121055020A02
:100A0B008B7854E6FF600EE524C3940D4007E52474
:100A1B00D3940F4003EF702BE52424F26011146084
:100A2B00182402705B1210FFC28C120E85805112BB
:100A3B0010FFC28C120D9680471210FFC28C120F42
:100A4B00A8803DE524640A6005E524B40B11784EBB
:100A5B00E6600C7854E66007AF24120A9F8021E50C
:100A6B000EC39404401AE50ED394075013E524C328
:100A7B009400400CE524D394095005AF24120FD0F9
:100A8B00C3E51F9488E51E94134008E4F51EF51F7B
:100A9B00784FF6227853E6FE600964016005EE6438
:100AAB0003704D75130A75140ABF0A0A7852E616BD
:100ABB0018700B168008785206E6187001067851EC
:100ACB00E6FC08E6FDD394FFEC6480947F50081895
:100ADB0076000876018011C3ED9402EC648094805B
:100AEB004006E47851F608F67852E62406F50E2215
:100AFB00BF0A0A7852E61618700B16800878520651
:100B0B00E6187001067851E6FE08E6FFD394FFEE77
:100B1B006480947F50081876000876038011C3EF29
:100B2B009404EE648094804006E47851F608F678DD
:100B3B0052E62404F50E22C0E0C0F0C083C082C090
:100B4B00D075D000C000C001C002C003C004C005F6
:100B5B00C006C0070521E521700205200509E5093E
:100B6B0070020508C3E521940CE52094004009753B
:100B7B002000752100120E38C3E50994DCE50894BA
:100B8B00054023E50E601F7508007509007850E6D7
:100B9B00FF78556004A60E800276FFEF7F0070028F
:100BAB007F017850A607784FE66008051FE51F7098
:100BBB0002051ED007D006D005D004D003D002D03A
:100BCB0001D000D0D0D082D083D0F0D0E032787F6B
:100BDB00E4F6D8FD758155020C20021081E493A335
:100BEB00F8E493A34003F68001F208DFF48029E4D4
:100BFB0093A3F85407240CC8C333C4540F4420C820
:100C0B00834004F456800146F6DFE4800B010204B6
:100C1B000810204080900C65E47E019360BCA3FF1C
:100C2B00543F30E509541FFEE493A360010ECF54EB
:100C3B00C025E060A840B8E493A3FAE493A3F8E4DA
:100C4B0093A3C8C582C8CAC583CAF0A3C8C582C846
:100C5B00CAC583CADFE9DEE780BE0154000150013B
:100C6B0002510001014E00014F000155FF012D0003
:100C7B0020202E00000000000000000000000000FB
:100C8B000000000000000000000000000000000059
:100C9B00000000015302010E00080F0000000A0AB9
:100CAB000A0000021E0000020800000117000220CB
:100CBB00000002220000021C0000020A00000119C1
:100CCB0000011800020C0000021A000000E4F525D8
:100CDB00E525B4030478538005740F2525F8E6FD4C
:100CEB007C00AF25120FF41210ED0525E525C394FA
:100CFB000440DD752704E4F525E4F526E52575F0BC
:100D0B0008A4242EF8E52625E028F8E6FC08E6FDE5
:100D1B00AF27120FF41210ED05270526E526C39415
:100D2B000440D90525E525C3940440CD22E4F524E0
:100D3B00E524B4030AFF120F247853A607800CAFE7
:100D4B0024120F24740F2524F8A6070524E524C3C9
:100D5B00940440DC752604E4F524E4F525AF261253
:100D6B000F24E52475F008A4242EF8E52525E028AA
:100D7B00F8760008A60705260525E525C39404404B
:100D8B00DC0524E524C3940440D022E4782DF675C9
:100D9B000E02784E76017853E6C39402401806E6AD
:100DAB00B4040276027853E6B40304240A8026784E
:100DBB0053E62409801F785306E65401F66011E6CA
:100DCB00240BFF740F250EF8A607782D7601800DE6
:100DDB007853E6240BFF740F250EF8A607020DEBD4
:100DEB007853E624FE6028240224FC5002803D75D3
:100DFB00130A75140A7853E6FF75F008A4242FF92B
:100E0B00E7F515EF75F008A42431F9E7F51622E4A0
:100E1B00FF7853E675F008A4242FF8EF25E028F9A6
:100E2B00E7FE74132FF8A6060FBF04E522AF1712C7
:100E3B00106CE517785566700A784FE67005FD7FE4
:100E4B000E802E782DE66015E517B40610784FE668
:100E5B00700B740F2517F8E6FF7D018014784FE6B1
:100E6B0060067D02AF178009740F2517F8E6FFE4C3
:100E7B00FD120F540517531707227853E6C394023C
:100E8B004004E4F6800478537602E4782DF6750E70
:100E9B00017410250EF8760B784E76017853E6FF29
:100EAB0060028003EF04FF740F250EF8A607020DF6
:100EBB00EB8F2BE4F52C74807E00A82C088006CEDB
:100ECB00A2E713CE13D8F8FFEF552B24FF92B412E1
:100EDB000003D2B6120003C2B6120003052CE52C98
:100EEB00C3940840D122E4F52AD2B4120003E4F5EE
:100EFB0029D2B612000330B40FAF297480A80708AB
:100F0B008002C313D8FC422AC2B61200030529E59E
:100F1B0029C3940840DBAF2A228F271210A97FA088
:100F2B00120EBC12103AAF27120EBC12103A12104E
:100F3B00A97FA1120EBC12103A120EF18F287F015D
:100F4B001210D11210BDAF2822D294E4F580C294B6
:100F5B00D294BD010BEF90110B93F580D287800FCC
:100F6B00EFBD020590111A800390110B93F580C20F
:100F7B0094C29322AD07E4FB74807E00A803088023
:100F8B0006CEA2E713CE13D8F8FFEDF582EF55820C
:100F9B0024FF92B4D2B6C2B60BBB08DC2212077880
:100FAB00EF601DE4F50E785576FF18E66002E4F667
:100FBB00784EE66002E4F6E4F50F120CD802110845
:100FCB00784F7601228F257853E675F008A4242EEE
:100FDB00F8C0007852E6D00025E028F8760008A685
:100FEB0007740F250EF8A625228F288C298D2A121F
:100FFB0010A97FA0120EBC12103AAF28120EBC1211
:10100B00103AAF2A120EBC12103A0210BD7F147E9A
:10101B0000D3EF9400EE940040147D907C00ED1D06
:10102B0070011CED4C70F7EF1F70E61E80E322D2AF
:10103B00B4120003D2B6120003A2B4E433F52B12A0
:10104B000003C2B6120003AF2B227854E6F4FFF66E
:10105B00E4F50E0876FFEF6004750F0522E4F50F3B
:10106B0022D2957401A807088002C333D8FCF4F58B
:10107B0080C295C29322120D38120DEB121055122D
:10108B000E851210951209F780FB758921758D3825
:10109B00758B38D2AFD2ABD28ED2A9C28C22D2B43E
:1010AB00120003D2B6120003C2B4120003C2B6027E
:1010BB000003C2B6120003C2B4120003D2B6120070
:1010CB0003D2B4020003EF24FF92B4120003D2B692
:1010DB00120003C2B6020003EF24FF92B4D2B6C2D1
:1010EB00B6227F0A7EB7DEFEDFFC22D2B4D2B6C2B6
:1010FB00B4C2B622C2B6C2B4D2B6D2B4220204145F
:10110B003F065B4F666D7D077F6F4071775E0079A1
:07111B0077773F7700000029
:00000001FF
